{
  "contractName": "ContractA",
  "abi": [
    {
      "inputs": [
        {
          "internalType": "address",
          "name": "_token",
          "type": "address"
        },
        {
          "internalType": "address",
          "name": "_contractB",
          "type": "address"
        }
      ],
      "stateMutability": "nonpayable",
      "type": "constructor"
    },
    {
      "inputs": [],
      "name": "contractB",
      "outputs": [
        {
          "internalType": "contract ContractB",
          "name": "",
          "type": "address"
        }
      ],
      "stateMutability": "view",
      "type": "function"
    },
    {
      "inputs": [
        {
          "internalType": "address",
          "name": "",
          "type": "address"
        },
        {
          "internalType": "address",
          "name": "",
          "type": "address"
        },
        {
          "internalType": "uint256",
          "name": "",
          "type": "uint256"
        },
        {
          "internalType": "bytes",
          "name": "",
          "type": "bytes"
        }
      ],
      "name": "onERC721Received",
      "outputs": [
        {
          "internalType": "bytes4",
          "name": "",
          "type": "bytes4"
        }
      ],
      "stateMutability": "nonpayable",
      "type": "function"
    },
    {
      "inputs": [],
      "name": "token",
      "outputs": [
        {
          "internalType": "contract IERC721",
          "name": "",
          "type": "address"
        }
      ],
      "stateMutability": "view",
      "type": "function"
    },
    {
      "inputs": [
        {
          "internalType": "uint256",
          "name": "tokenId",
          "type": "uint256"
        }
      ],
      "name": "deposit",
      "outputs": [],
      "stateMutability": "nonpayable",
      "type": "function"
    },
    {
      "inputs": [
        {
          "internalType": "uint256",
          "name": "tokenId",
          "type": "uint256"
        }
      ],
      "name": "withdraw",
      "outputs": [],
      "stateMutability": "nonpayable",
      "type": "function"
    }
  ],
  "bytecode": "0x608060405234801561001057600080fd5b506040516109e53803806109e5833981810160405281019061003291906100cf565b816000806101000a81548173ffffffffffffffffffffffffffffffffffffffff021916908373ffffffffffffffffffffffffffffffffffffffff16021790555080600160006101000a81548173ffffffffffffffffffffffffffffffffffffffff021916908373ffffffffffffffffffffffffffffffffffffffff1602179055505050610154565b6000815190506100c98161013d565b92915050565b600080604083850312156100e257600080fd5b60006100f0858286016100ba565b9250506020610101858286016100ba565b9150509250929050565b60006101168261011d565b9050919050565b600073ffffffffffffffffffffffffffffffffffffffff82169050919050565b6101468161010b565b811461015157600080fd5b50565b610882806101636000396000f3fe608060405234801561001057600080fd5b50600436106100575760003560e01c8063150b7a021461005c5780632e1a7d4d1461008c5780639ff8a368146100a8578063b6b55f25146100c6578063fc0c546a146100e2575b600080fd5b610076600480360381019061007191906104dd565b610100565b604051610083919061062c565b60405180910390f35b6100a660048036038101906100a19190610558565b610114565b005b6100b0610233565b6040516100bd9190610647565b60405180910390f35b6100e060048036038101906100db9190610558565b610259565b005b6100ea610427565b6040516100f79190610662565b60405180910390f35b600063150b7a0260e01b9050949350505050565b600160009054906101000a900473ffffffffffffffffffffffffffffffffffffffff1673ffffffffffffffffffffffffffffffffffffffff16632e1a7d4d826040518263ffffffff1660e01b815260040161016f919061067d565b600060405180830381600087803b15801561018957600080fd5b505af115801561019d573d6000803e3d6000fd5b5050505060008054906101000a900473ffffffffffffffffffffffffffffffffffffffff1673ffffffffffffffffffffffffffffffffffffffff166342842e0e3033846040518463ffffffff1660e01b81526004016101fe939291906105cc565b600060405180830381600087803b15801561021857600080fd5b505af115801561022c573d6000803e3d6000fd5b5050505050565b600160009054906101000a900473ffffffffffffffffffffffffffffffffffffffff1681565b60008054906101000a900473ffffffffffffffffffffffffffffffffffffffff1673ffffffffffffffffffffffffffffffffffffffff166342842e0e3330846040518463ffffffff1660e01b81526004016102b6939291906105cc565b600060405180830381600087803b1580156102d057600080fd5b505af11580156102e4573d6000803e3d6000fd5b5050505060008054906101000a900473ffffffffffffffffffffffffffffffffffffffff1673ffffffffffffffffffffffffffffffffffffffff1663095ea7b3600160009054906101000a900473ffffffffffffffffffffffffffffffffffffffff16836040518363ffffffff1660e01b8152600401610365929190610603565b600060405180830381600087803b15801561037f57600080fd5b505af1158015610393573d6000803e3d6000fd5b50505050600160009054906101000a900473ffffffffffffffffffffffffffffffffffffffff1673ffffffffffffffffffffffffffffffffffffffff1663b6b55f25826040518263ffffffff1660e01b81526004016103f2919061067d565b600060405180830381600087803b15801561040c57600080fd5b505af1158015610420573d6000803e3d6000fd5b5050505050565b60008054906101000a900473ffffffffffffffffffffffffffffffffffffffff1681565b600061045e610459846106bd565b610698565b90508281526020810184848401111561047657600080fd5b61048184828561079e565b509392505050565b6000813590506104988161081e565b92915050565b600082601f8301126104af57600080fd5b81356104bf84826020860161044b565b91505092915050565b6000813590506104d781610835565b92915050565b600080600080608085870312156104f357600080fd5b600061050187828801610489565b945050602061051287828801610489565b9350506040610523878288016104c8565b925050606085013567ffffffffffffffff81111561054057600080fd5b61054c8782880161049e565b91505092959194509250565b60006020828403121561056a57600080fd5b6000610578848285016104c8565b91505092915050565b61058a816106ee565b82525050565b61059981610700565b82525050565b6105a881610756565b82525050565b6105b78161077a565b82525050565b6105c68161074c565b82525050565b60006060820190506105e16000830186610581565b6105ee6020830185610581565b6105fb60408301846105bd565b949350505050565b60006040820190506106186000830185610581565b61062560208301846105bd565b9392505050565b60006020820190506106416000830184610590565b92915050565b600060208201905061065c600083018461059f565b92915050565b600060208201905061067760008301846105ae565b92915050565b600060208201905061069260008301846105bd565b92915050565b60006106a26106b3565b90506106ae82826107ad565b919050565b6000604051905090565b600067ffffffffffffffff8211156106d8576106d76107de565b5b6106e18261080d565b9050602081019050919050565b60006106f98261072c565b9050919050565b60007fffffffff0000000000000000000000000000000000000000000000000000000082169050919050565b600073ffffffffffffffffffffffffffffffffffffffff82169050919050565b6000819050919050565b600061076182610768565b9050919050565b60006107738261072c565b9050919050565b60006107858261078c565b9050919050565b60006107978261072c565b9050919050565b82818337600083830152505050565b6107b68261080d565b810181811067ffffffffffffffff821117156107d5576107d46107de565b5b80604052505050565b7f4e487b7100000000000000000000000000000000000000000000000000000000600052604160045260246000fd5b6000601f19601f8301169050919050565b610827816106ee565b811461083257600080fd5b50565b61083e8161074c565b811461084957600080fd5b5056fea2646970667358221220ef28bb1990ddd4b83f06284348621ba82d4d97a159b60d75dabb11b9160cab9f64736f6c63430008040033",
  "immutableReferences": {},
  "source": "// SPDX-License-Identifier: UNLICENSED\npragma solidity ^0.8.4;\n\nimport '@openzeppelin/contracts/token/ERC721/utils/ERC721Holder.sol';\nimport '@openzeppelin/contracts/token/ERC721/IERC721.sol';\n\ncontract ContractB is ERC721Holder {\n  IERC721 public token;\n  function deposit(uint tokenId) external {\n    token.safeTransferFrom(msg.sender, address(this), tokenId);\n  }\n  function withdraw(uint tokenId) external {\n    token.safeTransferFrom(address(this), msg.sender, tokenId);\n  }\n}\n\ncontract ContractA is ERC721Holder {\n  IERC721 public token;\n  ContractB public contractB;\n\n  constructor(address _token, address _contractB){\n    token = IERC721(_token);\n    contractB = ContractB(_contractB);\n  }\n\n  function deposit(uint tokenId) external {\n    token.safeTransferFrom(msg.sender, address(this), tokenId);\n    token.approve(address(contractB), tokenId);\n    contractB.deposit(tokenId);\n  }\n\n  function withdraw(uint tokenId) external {\n    contractB.withdraw(tokenId);\n    token.safeTransferFrom(address(this), msg.sender, tokenId);\n  }\n}\n",
  "sourcePath": "/Users/mac/Desktop/caleb/defi-components/erc721-tokens/contracts/ContractA.sol",
  "compiler": {
    "name": "solc",
    "version": "0.8.4+commit.c7e474f2.Emscripten.clang"
  },
  "schemaVersion": "3.3.4",
  "updatedAt": "2021-07-05T18:23:13.505Z",
  "devdoc": {
    "kind": "dev",
    "methods": {
      "onERC721Received(address,address,uint256,bytes)": {
        "details": "See {IERC721Receiver-onERC721Received}. Always returns `IERC721Receiver.onERC721Received.selector`."
      }
    },
    "version": 1
  },
  "userdoc": {
    "kind": "user",
    "methods": {},
    "version": 1
  }
}