{
  "contractName": "ContractB",
  "abi": [
    {
      "inputs": [
        {
          "internalType": "address",
          "name": "",
          "type": "address"
        },
        {
          "internalType": "address",
          "name": "",
          "type": "address"
        },
        {
          "internalType": "uint256",
          "name": "",
          "type": "uint256"
        },
        {
          "internalType": "bytes",
          "name": "",
          "type": "bytes"
        }
      ],
      "name": "onERC721Received",
      "outputs": [
        {
          "internalType": "bytes4",
          "name": "",
          "type": "bytes4"
        }
      ],
      "stateMutability": "nonpayable",
      "type": "function"
    },
    {
      "inputs": [],
      "name": "token",
      "outputs": [
        {
          "internalType": "contract IERC721",
          "name": "",
          "type": "address"
        }
      ],
      "stateMutability": "view",
      "type": "function"
    },
    {
      "inputs": [
        {
          "internalType": "uint256",
          "name": "tokenId",
          "type": "uint256"
        }
      ],
      "name": "deposit",
      "outputs": [],
      "stateMutability": "nonpayable",
      "type": "function"
    },
    {
      "inputs": [
        {
          "internalType": "uint256",
          "name": "tokenId",
          "type": "uint256"
        }
      ],
      "name": "withdraw",
      "outputs": [],
      "stateMutability": "nonpayable",
      "type": "function"
    }
  ],
  "bytecode": "0x608060405234801561001057600080fd5b506105d8806100206000396000f3fe608060405234801561001057600080fd5b506004361061004c5760003560e01c8063150b7a02146100515780632e1a7d4d14610081578063b6b55f251461009d578063fc0c546a146100b9575b600080fd5b61006b600480360381019061006691906102c5565b6100d7565b60405161007891906103dc565b60405180910390f35b61009b60048036038101906100969190610340565b6100eb565b005b6100b760048036038101906100b29190610340565b61017d565b005b6100c161020f565b6040516100ce91906103f7565b60405180910390f35b600063150b7a0260e01b9050949350505050565b60008054906101000a900473ffffffffffffffffffffffffffffffffffffffff1673ffffffffffffffffffffffffffffffffffffffff166342842e0e3033846040518463ffffffff1660e01b8152600401610148939291906103a5565b600060405180830381600087803b15801561016257600080fd5b505af1158015610176573d6000803e3d6000fd5b5050505050565b60008054906101000a900473ffffffffffffffffffffffffffffffffffffffff1673ffffffffffffffffffffffffffffffffffffffff166342842e0e3330846040518463ffffffff1660e01b81526004016101da939291906103a5565b600060405180830381600087803b1580156101f457600080fd5b505af1158015610208573d6000803e3d6000fd5b5050505050565b60008054906101000a900473ffffffffffffffffffffffffffffffffffffffff1681565b600061024661024184610437565b610412565b90508281526020810184848401111561025e57600080fd5b6102698482856104f4565b509392505050565b60008135905061028081610574565b92915050565b600082601f83011261029757600080fd5b81356102a7848260208601610233565b91505092915050565b6000813590506102bf8161058b565b92915050565b600080600080608085870312156102db57600080fd5b60006102e987828801610271565b94505060206102fa87828801610271565b935050604061030b878288016102b0565b925050606085013567ffffffffffffffff81111561032857600080fd5b61033487828801610286565b91505092959194509250565b60006020828403121561035257600080fd5b6000610360848285016102b0565b91505092915050565b61037281610468565b82525050565b6103818161047a565b82525050565b610390816104d0565b82525050565b61039f816104c6565b82525050565b60006060820190506103ba6000830186610369565b6103c76020830185610369565b6103d46040830184610396565b949350505050565b60006020820190506103f16000830184610378565b92915050565b600060208201905061040c6000830184610387565b92915050565b600061041c61042d565b90506104288282610503565b919050565b6000604051905090565b600067ffffffffffffffff82111561045257610451610534565b5b61045b82610563565b9050602081019050919050565b6000610473826104a6565b9050919050565b60007fffffffff0000000000000000000000000000000000000000000000000000000082169050919050565b600073ffffffffffffffffffffffffffffffffffffffff82169050919050565b6000819050919050565b60006104db826104e2565b9050919050565b60006104ed826104a6565b9050919050565b82818337600083830152505050565b61050c82610563565b810181811067ffffffffffffffff8211171561052b5761052a610534565b5b80604052505050565b7f4e487b7100000000000000000000000000000000000000000000000000000000600052604160045260246000fd5b6000601f19601f8301169050919050565b61057d81610468565b811461058857600080fd5b50565b610594816104c6565b811461059f57600080fd5b5056fea26469706673582212203e3c4bec6f71ed527f57cfe2459d8dabd8385ebcd66faa58a51b6f32f69c68f664736f6c63430008040033",
  "immutableReferences": {},
  "source": "// SPDX-License-Identifier: UNLICENSED\npragma solidity ^0.8.4;\n\nimport '@openzeppelin/contracts/token/ERC721/utils/ERC721Holder.sol';\nimport '@openzeppelin/contracts/token/ERC721/IERC721.sol';\n\ncontract ContractB is ERC721Holder {\n  IERC721 public token;\n  function deposit(uint tokenId) external {\n    token.safeTransferFrom(msg.sender, address(this), tokenId);\n  }\n  function withdraw(uint tokenId) external {\n    token.safeTransferFrom(address(this), msg.sender, tokenId);\n  }\n}\n\ncontract ContractA is ERC721Holder {\n  IERC721 public token;\n  ContractB public contractB;\n\n  constructor(address _token, address _contractB){\n    token = IERC721(_token);\n    contractB = ContractB(_contractB);\n  }\n\n  function deposit(uint tokenId) external {\n    token.safeTransferFrom(msg.sender, address(this), tokenId);\n    token.approve(address(contractB), tokenId);\n    contractB.deposit(tokenId);\n  }\n\n  function withdraw(uint tokenId) external {\n    contractB.withdraw(tokenId);\n    token.safeTransferFrom(address(this), msg.sender, tokenId);\n  }\n}\n",
  "sourcePath": "/Users/mac/Desktop/caleb/defi-components/erc721-tokens/contracts/ContractA.sol",
  "compiler": {
    "name": "solc",
    "version": "0.8.4+commit.c7e474f2.Emscripten.clang"
  },
  "schemaVersion": "3.3.4",
  "updatedAt": "2021-07-05T18:23:13.517Z",
  "devdoc": {
    "kind": "dev",
    "methods": {
      "onERC721Received(address,address,uint256,bytes)": {
        "details": "See {IERC721Receiver-onERC721Received}. Always returns `IERC721Receiver.onERC721Received.selector`."
      }
    },
    "version": 1
  },
  "userdoc": {
    "kind": "user",
    "methods": {},
    "version": 1
  }
}