{
  "contractName": "ERC721OpenZeppelin3",
  "abi": [
    {
      "inputs": [],
      "stateMutability": "nonpayable",
      "type": "constructor"
    },
    {
      "anonymous": false,
      "inputs": [
        {
          "indexed": true,
          "internalType": "address",
          "name": "owner",
          "type": "address"
        },
        {
          "indexed": true,
          "internalType": "address",
          "name": "approved",
          "type": "address"
        },
        {
          "indexed": true,
          "internalType": "uint256",
          "name": "tokenId",
          "type": "uint256"
        }
      ],
      "name": "Approval",
      "type": "event"
    },
    {
      "anonymous": false,
      "inputs": [
        {
          "indexed": true,
          "internalType": "address",
          "name": "owner",
          "type": "address"
        },
        {
          "indexed": true,
          "internalType": "address",
          "name": "operator",
          "type": "address"
        },
        {
          "indexed": false,
          "internalType": "bool",
          "name": "approved",
          "type": "bool"
        }
      ],
      "name": "ApprovalForAll",
      "type": "event"
    },
    {
      "anonymous": false,
      "inputs": [
        {
          "indexed": true,
          "internalType": "address",
          "name": "from",
          "type": "address"
        },
        {
          "indexed": true,
          "internalType": "address",
          "name": "to",
          "type": "address"
        },
        {
          "indexed": true,
          "internalType": "uint256",
          "name": "tokenId",
          "type": "uint256"
        }
      ],
      "name": "Transfer",
      "type": "event"
    },
    {
      "inputs": [],
      "name": "admin",
      "outputs": [
        {
          "internalType": "address",
          "name": "",
          "type": "address"
        }
      ],
      "stateMutability": "view",
      "type": "function"
    },
    {
      "inputs": [
        {
          "internalType": "address",
          "name": "to",
          "type": "address"
        },
        {
          "internalType": "uint256",
          "name": "tokenId",
          "type": "uint256"
        }
      ],
      "name": "approve",
      "outputs": [],
      "stateMutability": "nonpayable",
      "type": "function"
    },
    {
      "inputs": [
        {
          "internalType": "address",
          "name": "owner",
          "type": "address"
        }
      ],
      "name": "balanceOf",
      "outputs": [
        {
          "internalType": "uint256",
          "name": "",
          "type": "uint256"
        }
      ],
      "stateMutability": "view",
      "type": "function"
    },
    {
      "inputs": [
        {
          "internalType": "uint256",
          "name": "tokenId",
          "type": "uint256"
        }
      ],
      "name": "getApproved",
      "outputs": [
        {
          "internalType": "address",
          "name": "",
          "type": "address"
        }
      ],
      "stateMutability": "view",
      "type": "function"
    },
    {
      "inputs": [
        {
          "internalType": "address",
          "name": "owner",
          "type": "address"
        },
        {
          "internalType": "address",
          "name": "operator",
          "type": "address"
        }
      ],
      "name": "isApprovedForAll",
      "outputs": [
        {
          "internalType": "bool",
          "name": "",
          "type": "bool"
        }
      ],
      "stateMutability": "view",
      "type": "function"
    },
    {
      "inputs": [],
      "name": "name",
      "outputs": [
        {
          "internalType": "string",
          "name": "",
          "type": "string"
        }
      ],
      "stateMutability": "view",
      "type": "function"
    },
    {
      "inputs": [
        {
          "internalType": "uint256",
          "name": "tokenId",
          "type": "uint256"
        }
      ],
      "name": "ownerOf",
      "outputs": [
        {
          "internalType": "address",
          "name": "",
          "type": "address"
        }
      ],
      "stateMutability": "view",
      "type": "function"
    },
    {
      "inputs": [
        {
          "internalType": "address",
          "name": "from",
          "type": "address"
        },
        {
          "internalType": "address",
          "name": "to",
          "type": "address"
        },
        {
          "internalType": "uint256",
          "name": "tokenId",
          "type": "uint256"
        }
      ],
      "name": "safeTransferFrom",
      "outputs": [],
      "stateMutability": "nonpayable",
      "type": "function"
    },
    {
      "inputs": [
        {
          "internalType": "address",
          "name": "from",
          "type": "address"
        },
        {
          "internalType": "address",
          "name": "to",
          "type": "address"
        },
        {
          "internalType": "uint256",
          "name": "tokenId",
          "type": "uint256"
        },
        {
          "internalType": "bytes",
          "name": "_data",
          "type": "bytes"
        }
      ],
      "name": "safeTransferFrom",
      "outputs": [],
      "stateMutability": "nonpayable",
      "type": "function"
    },
    {
      "inputs": [
        {
          "internalType": "address",
          "name": "operator",
          "type": "address"
        },
        {
          "internalType": "bool",
          "name": "approved",
          "type": "bool"
        }
      ],
      "name": "setApprovalForAll",
      "outputs": [],
      "stateMutability": "nonpayable",
      "type": "function"
    },
    {
      "inputs": [
        {
          "internalType": "bytes4",
          "name": "interfaceId",
          "type": "bytes4"
        }
      ],
      "name": "supportsInterface",
      "outputs": [
        {
          "internalType": "bool",
          "name": "",
          "type": "bool"
        }
      ],
      "stateMutability": "view",
      "type": "function"
    },
    {
      "inputs": [],
      "name": "symbol",
      "outputs": [
        {
          "internalType": "string",
          "name": "",
          "type": "string"
        }
      ],
      "stateMutability": "view",
      "type": "function"
    },
    {
      "inputs": [
        {
          "internalType": "uint256",
          "name": "tokenId",
          "type": "uint256"
        }
      ],
      "name": "tokenURI",
      "outputs": [
        {
          "internalType": "string",
          "name": "",
          "type": "string"
        }
      ],
      "stateMutability": "view",
      "type": "function"
    },
    {
      "inputs": [
        {
          "internalType": "address",
          "name": "from",
          "type": "address"
        },
        {
          "internalType": "address",
          "name": "to",
          "type": "address"
        },
        {
          "internalType": "uint256",
          "name": "tokenId",
          "type": "uint256"
        }
      ],
      "name": "transferFrom",
      "outputs": [],
      "stateMutability": "nonpayable",
      "type": "function"
    },
    {
      "inputs": [
        {
          "internalType": "address",
          "name": "to",
          "type": "address"
        },
        {
          "internalType": "uint256",
          "name": "tokenId",
          "type": "uint256"
        }
      ],
      "name": "mint",
      "outputs": [],
      "stateMutability": "nonpayable",
      "type": "function"
    }
  ],
  "bytecode": "0x60806040523480156200001157600080fd5b506040518060400160405280600a81526020017f546f6b656e204e616d65000000000000000000000000000000000000000000008152506040518060400160405280600881526020017f546f6b656e53594d000000000000000000000000000000000000000000000000815250816000908051906020019062000096929190620000f9565b508060019080519060200190620000af929190620000f9565b50505033600660006101000a81548173ffffffffffffffffffffffffffffffffffffffff021916908373ffffffffffffffffffffffffffffffffffffffff1602179055506200020e565b8280546200010790620001a9565b90600052602060002090601f0160209004810192826200012b576000855562000177565b82601f106200014657805160ff191683800117855562000177565b8280016001018555821562000177579182015b828111156200017657825182559160200191906001019062000159565b5b5090506200018691906200018a565b5090565b5b80821115620001a55760008160009055506001016200018b565b5090565b60006002820490506001821680620001c257607f821691505b60208210811415620001d957620001d8620001df565b5b50919050565b7f4e487b7100000000000000000000000000000000000000000000000000000000600052602260045260246000fd5b612854806200021e6000396000f3fe608060405234801561001057600080fd5b50600436106100f55760003560e01c80636352211e11610097578063b88d4fde11610066578063b88d4fde14610282578063c87b56dd1461029e578063e985e9c5146102ce578063f851a440146102fe576100f5565b80636352211e146101e857806370a082311461021857806395d89b4114610248578063a22cb46514610266576100f5565b8063095ea7b3116100d3578063095ea7b31461017857806323b872dd1461019457806340c10f19146101b057806342842e0e146101cc576100f5565b806301ffc9a7146100fa57806306fdde031461012a578063081812fc14610148575b600080fd5b610114600480360381019061010f91906119ea565b61031c565b6040516101219190611dcd565b60405180910390f35b6101326103fe565b60405161013f9190611de8565b60405180910390f35b610162600480360381019061015d9190611a3c565b610490565b60405161016f9190611d66565b60405180910390f35b610192600480360381019061018d91906119ae565b610515565b005b6101ae60048036038101906101a991906118a8565b61062d565b005b6101ca60048036038101906101c591906119ae565b61068d565b005b6101e660048036038101906101e191906118a8565b61072b565b005b61020260048036038101906101fd9190611a3c565b61074b565b60405161020f9190611d66565b60405180910390f35b610232600480360381019061022d9190611843565b6107fd565b60405161023f9190611fea565b60405180910390f35b6102506108b5565b60405161025d9190611de8565b60405180910390f35b610280600480360381019061027b9190611972565b610947565b005b61029c600480360381019061029791906118f7565b610ac8565b005b6102b860048036038101906102b39190611a3c565b610b2a565b6040516102c59190611de8565b60405180910390f35b6102e860048036038101906102e3919061186c565b610bd1565b6040516102f59190611dcd565b60405180910390f35b610306610c65565b6040516103139190611d66565b60405180910390f35b60007f80ac58cd000000000000000000000000000000000000000000000000000000007bffffffffffffffffffffffffffffffffffffffffffffffffffffffff1916827bffffffffffffffffffffffffffffffffffffffffffffffffffffffff191614806103e757507f5b5e139f000000000000000000000000000000000000000000000000000000007bffffffffffffffffffffffffffffffffffffffffffffffffffffffff1916827bffffffffffffffffffffffffffffffffffffffffffffffffffffffff1916145b806103f757506103f682610c8b565b5b9050919050565b60606000805461040d9061220f565b80601f01602080910402602001604051908101604052809291908181526020018280546104399061220f565b80156104865780601f1061045b57610100808354040283529160200191610486565b820191906000526020600020905b81548152906001019060200180831161046957829003601f168201915b5050505050905090565b600061049b82610cf5565b6104da576040517f08c379a00000000000000000000000000000000000000000000000000000000081526004016104d190611f4a565b60405180910390fd5b6004600083815260200190815260200160002060009054906101000a900473ffffffffffffffffffffffffffffffffffffffff169050919050565b60006105208261074b565b90508073ffffffffffffffffffffffffffffffffffffffff168373ffffffffffffffffffffffffffffffffffffffff161415610591576040517f08c379a000000000000000000000000000000000000000000000000000000000815260040161058890611faa565b60405180910390fd5b8073ffffffffffffffffffffffffffffffffffffffff166105b0610d61565b73ffffffffffffffffffffffffffffffffffffffff1614806105df57506105de816105d9610d61565b610bd1565b5b61061e576040517f08c379a000000000000000000000000000000000000000000000000000000000815260040161061590611eca565b60405180910390fd5b6106288383610d69565b505050565b61063e610638610d61565b82610e22565b61067d576040517f08c379a000000000000000000000000000000000000000000000000000000000815260040161067490611fca565b60405180910390fd5b610688838383610f00565b505050565b600660009054906101000a900473ffffffffffffffffffffffffffffffffffffffff1673ffffffffffffffffffffffffffffffffffffffff163373ffffffffffffffffffffffffffffffffffffffff161461071d576040517f08c379a000000000000000000000000000000000000000000000000000000000815260040161071490611e8a565b60405180910390fd5b610727828261115c565b5050565b61074683838360405180602001604052806000815250610ac8565b505050565b6000806002600084815260200190815260200160002060009054906101000a900473ffffffffffffffffffffffffffffffffffffffff169050600073ffffffffffffffffffffffffffffffffffffffff168173ffffffffffffffffffffffffffffffffffffffff1614156107f4576040517f08c379a00000000000000000000000000000000000000000000000000000000081526004016107eb90611f0a565b60405180910390fd5b80915050919050565b60008073ffffffffffffffffffffffffffffffffffffffff168273ffffffffffffffffffffffffffffffffffffffff16141561086e576040517f08c379a000000000000000000000000000000000000000000000000000000000815260040161086590611eea565b60405180910390fd5b600360008373ffffffffffffffffffffffffffffffffffffffff1673ffffffffffffffffffffffffffffffffffffffff168152602001908152602001600020549050919050565b6060600180546108c49061220f565b80601f01602080910402602001604051908101604052809291908181526020018280546108f09061220f565b801561093d5780601f106109125761010080835404028352916020019161093d565b820191906000526020600020905b81548152906001019060200180831161092057829003601f168201915b5050505050905090565b61094f610d61565b73ffffffffffffffffffffffffffffffffffffffff168273ffffffffffffffffffffffffffffffffffffffff1614156109bd576040517f08c379a00000000000000000000000000000000000000000000000000000000081526004016109b490611e6a565b60405180910390fd5b80600560006109ca610d61565b73ffffffffffffffffffffffffffffffffffffffff1673ffffffffffffffffffffffffffffffffffffffff16815260200190815260200160002060008473ffffffffffffffffffffffffffffffffffffffff1673ffffffffffffffffffffffffffffffffffffffff16815260200190815260200160002060006101000a81548160ff0219169083151502179055508173ffffffffffffffffffffffffffffffffffffffff16610a77610d61565b73ffffffffffffffffffffffffffffffffffffffff167f17307eab39ab6107e8899845ad3d59bd9653f200f220920489ca2b5937696c3183604051610abc9190611dcd565b60405180910390a35050565b610ad9610ad3610d61565b83610e22565b610b18576040517f08c379a0000000000000000000000000000000000000000000000000000000008152600401610b0f90611fca565b60405180910390fd5b610b248484848461117a565b50505050565b6060610b3582610cf5565b610b74576040517f08c379a0000000000000000000000000000000000000000000000000000000008152600401610b6b90611f8a565b60405180910390fd5b6000610b7e6111d6565b90506000815111610b9e5760405180602001604052806000815250610bc9565b80610ba8846111ed565b604051602001610bb9929190611d42565b6040516020818303038152906040525b915050919050565b6000600560008473ffffffffffffffffffffffffffffffffffffffff1673ffffffffffffffffffffffffffffffffffffffff16815260200190815260200160002060008373ffffffffffffffffffffffffffffffffffffffff1673ffffffffffffffffffffffffffffffffffffffff16815260200190815260200160002060009054906101000a900460ff16905092915050565b600660009054906101000a900473ffffffffffffffffffffffffffffffffffffffff1681565b60007f01ffc9a7000000000000000000000000000000000000000000000000000000007bffffffffffffffffffffffffffffffffffffffffffffffffffffffff1916827bffffffffffffffffffffffffffffffffffffffffffffffffffffffff1916149050919050565b60008073ffffffffffffffffffffffffffffffffffffffff166002600084815260200190815260200160002060009054906101000a900473ffffffffffffffffffffffffffffffffffffffff1673ffffffffffffffffffffffffffffffffffffffff1614159050919050565b600033905090565b816004600083815260200190815260200160002060006101000a81548173ffffffffffffffffffffffffffffffffffffffff021916908373ffffffffffffffffffffffffffffffffffffffff160217905550808273ffffffffffffffffffffffffffffffffffffffff16610ddc8361074b565b73ffffffffffffffffffffffffffffffffffffffff167f8c5be1e5ebec7d5bd14f71427d1e84f3dd0314c0f7b2291e5b200ac8c7c3b92560405160405180910390a45050565b6000610e2d82610cf5565b610e6c576040517f08c379a0000000000000000000000000000000000000000000000000000000008152600401610e6390611eaa565b60405180910390fd5b6000610e778361074b565b90508073ffffffffffffffffffffffffffffffffffffffff168473ffffffffffffffffffffffffffffffffffffffff161480610ee657508373ffffffffffffffffffffffffffffffffffffffff16610ece84610490565b73ffffffffffffffffffffffffffffffffffffffff16145b80610ef75750610ef68185610bd1565b5b91505092915050565b8273ffffffffffffffffffffffffffffffffffffffff16610f208261074b565b73ffffffffffffffffffffffffffffffffffffffff1614610f76576040517f08c379a0000000000000000000000000000000000000000000000000000000008152600401610f6d90611f6a565b60405180910390fd5b600073ffffffffffffffffffffffffffffffffffffffff168273ffffffffffffffffffffffffffffffffffffffff161415610fe6576040517f08c379a0000000000000000000000000000000000000000000000000000000008152600401610fdd90611e4a565b60405180910390fd5b610ff183838361139a565b610ffc600082610d69565b6001600360008573ffffffffffffffffffffffffffffffffffffffff1673ffffffffffffffffffffffffffffffffffffffff168152602001908152602001600020600082825461104c9190612125565b925050819055506001600360008473ffffffffffffffffffffffffffffffffffffffff1673ffffffffffffffffffffffffffffffffffffffff16815260200190815260200160002060008282546110a3919061209e565b92505081905550816002600083815260200190815260200160002060006101000a81548173ffffffffffffffffffffffffffffffffffffffff021916908373ffffffffffffffffffffffffffffffffffffffff160217905550808273ffffffffffffffffffffffffffffffffffffffff168473ffffffffffffffffffffffffffffffffffffffff167fddf252ad1be2c89b69c2b068fc378daa952ba7f163c4a11628f55a4df523b3ef60405160405180910390a4505050565b61117682826040518060200160405280600081525061139f565b5050565b611185848484610f00565b611191848484846113fa565b6111d0576040517f08c379a00000000000000000000000000000000000000000000000000000000081526004016111c790611e0a565b60405180910390fd5b50505050565b606060405180602001604052806000815250905090565b60606000821415611235576040518060400160405280600181526020017f30000000000000000000000000000000000000000000000000000000000000008152509050611395565b600082905060005b6000821461126757808061125090612272565b915050600a8261126091906120f4565b915061123d565b60008167ffffffffffffffff8111156112a9577f4e487b7100000000000000000000000000000000000000000000000000000000600052604160045260246000fd5b6040519080825280601f01601f1916602001820160405280156112db5781602001600182028036833780820191505090505b5090505b6000851461138e576001826112f49190612125565b9150600a8561130391906122bb565b603061130f919061209e565b60f81b81838151811061134b577f4e487b7100000000000000000000000000000000000000000000000000000000600052603260045260246000fd5b60200101907effffffffffffffffffffffffffffffffffffffffffffffffffffffffffffff1916908160001a905350600a8561138791906120f4565b94506112df565b8093505050505b919050565b505050565b6113a98383611591565b6113b660008484846113fa565b6113f5576040517f08c379a00000000000000000000000000000000000000000000000000000000081526004016113ec90611e0a565b60405180910390fd5b505050565b600061141b8473ffffffffffffffffffffffffffffffffffffffff1661175f565b15611584578373ffffffffffffffffffffffffffffffffffffffff1663150b7a02611444610d61565b8786866040518563ffffffff1660e01b81526004016114669493929190611d81565b602060405180830381600087803b15801561148057600080fd5b505af19250505080156114b157506040513d601f19601f820116820180604052508101906114ae9190611a13565b60015b611534573d80600081146114e1576040519150601f19603f3d011682016040523d82523d6000602084013e6114e6565b606091505b5060008151141561152c576040517f08c379a000000000000000000000000000000000000000000000000000000000815260040161152390611e0a565b60405180910390fd5b805181602001fd5b63150b7a0260e01b7bffffffffffffffffffffffffffffffffffffffffffffffffffffffff1916817bffffffffffffffffffffffffffffffffffffffffffffffffffffffff191614915050611589565b600190505b949350505050565b600073ffffffffffffffffffffffffffffffffffffffff168273ffffffffffffffffffffffffffffffffffffffff161415611601576040517f08c379a00000000000000000000000000000000000000000000000000000000081526004016115f890611f2a565b60405180910390fd5b61160a81610cf5565b1561164a576040517f08c379a000000000000000000000000000000000000000000000000000000000815260040161164190611e2a565b60405180910390fd5b6116566000838361139a565b6001600360008473ffffffffffffffffffffffffffffffffffffffff1673ffffffffffffffffffffffffffffffffffffffff16815260200190815260200160002060008282546116a6919061209e565b92505081905550816002600083815260200190815260200160002060006101000a81548173ffffffffffffffffffffffffffffffffffffffff021916908373ffffffffffffffffffffffffffffffffffffffff160217905550808273ffffffffffffffffffffffffffffffffffffffff16600073ffffffffffffffffffffffffffffffffffffffff167fddf252ad1be2c89b69c2b068fc378daa952ba7f163c4a11628f55a4df523b3ef60405160405180910390a45050565b600080823b905060008111915050919050565b60006117856117808461202a565b612005565b90508281526020810184848401111561179d57600080fd5b6117a88482856121cd565b509392505050565b6000813590506117bf816127c2565b92915050565b6000813590506117d4816127d9565b92915050565b6000813590506117e9816127f0565b92915050565b6000815190506117fe816127f0565b92915050565b600082601f83011261181557600080fd5b8135611825848260208601611772565b91505092915050565b60008135905061183d81612807565b92915050565b60006020828403121561185557600080fd5b6000611863848285016117b0565b91505092915050565b6000806040838503121561187f57600080fd5b600061188d858286016117b0565b925050602061189e858286016117b0565b9150509250929050565b6000806000606084860312156118bd57600080fd5b60006118cb868287016117b0565b93505060206118dc868287016117b0565b92505060406118ed8682870161182e565b9150509250925092565b6000806000806080858703121561190d57600080fd5b600061191b878288016117b0565b945050602061192c878288016117b0565b935050604061193d8782880161182e565b925050606085013567ffffffffffffffff81111561195a57600080fd5b61196687828801611804565b91505092959194509250565b6000806040838503121561198557600080fd5b6000611993858286016117b0565b92505060206119a4858286016117c5565b9150509250929050565b600080604083850312156119c157600080fd5b60006119cf858286016117b0565b92505060206119e08582860161182e565b9150509250929050565b6000602082840312156119fc57600080fd5b6000611a0a848285016117da565b91505092915050565b600060208284031215611a2557600080fd5b6000611a33848285016117ef565b91505092915050565b600060208284031215611a4e57600080fd5b6000611a5c8482850161182e565b91505092915050565b611a6e81612159565b82525050565b611a7d8161216b565b82525050565b6000611a8e8261205b565b611a988185612071565b9350611aa88185602086016121dc565b611ab1816123a8565b840191505092915050565b6000611ac782612066565b611ad18185612082565b9350611ae18185602086016121dc565b611aea816123a8565b840191505092915050565b6000611b0082612066565b611b0a8185612093565b9350611b1a8185602086016121dc565b80840191505092915050565b6000611b33603283612082565b9150611b3e826123b9565b604082019050919050565b6000611b56601c83612082565b9150611b6182612408565b602082019050919050565b6000611b79602483612082565b9150611b8482612431565b604082019050919050565b6000611b9c601983612082565b9150611ba782612480565b602082019050919050565b6000611bbf600a83612082565b9150611bca826124a9565b602082019050919050565b6000611be2602c83612082565b9150611bed826124d2565b604082019050919050565b6000611c05603883612082565b9150611c1082612521565b604082019050919050565b6000611c28602a83612082565b9150611c3382612570565b604082019050919050565b6000611c4b602983612082565b9150611c56826125bf565b604082019050919050565b6000611c6e602083612082565b9150611c798261260e565b602082019050919050565b6000611c91602c83612082565b9150611c9c82612637565b604082019050919050565b6000611cb4602983612082565b9150611cbf82612686565b604082019050919050565b6000611cd7602f83612082565b9150611ce2826126d5565b604082019050919050565b6000611cfa602183612082565b9150611d0582612724565b604082019050919050565b6000611d1d603183612082565b9150611d2882612773565b604082019050919050565b611d3c816121c3565b82525050565b6000611d4e8285611af5565b9150611d5a8284611af5565b91508190509392505050565b6000602082019050611d7b6000830184611a65565b92915050565b6000608082019050611d966000830187611a65565b611da36020830186611a65565b611db06040830185611d33565b8181036060830152611dc28184611a83565b905095945050505050565b6000602082019050611de26000830184611a74565b92915050565b60006020820190508181036000830152611e028184611abc565b905092915050565b60006020820190508181036000830152611e2381611b26565b9050919050565b60006020820190508181036000830152611e4381611b49565b9050919050565b60006020820190508181036000830152611e6381611b6c565b9050919050565b60006020820190508181036000830152611e8381611b8f565b9050919050565b60006020820190508181036000830152611ea381611bb2565b9050919050565b60006020820190508181036000830152611ec381611bd5565b9050919050565b60006020820190508181036000830152611ee381611bf8565b9050919050565b60006020820190508181036000830152611f0381611c1b565b9050919050565b60006020820190508181036000830152611f2381611c3e565b9050919050565b60006020820190508181036000830152611f4381611c61565b9050919050565b60006020820190508181036000830152611f6381611c84565b9050919050565b60006020820190508181036000830152611f8381611ca7565b9050919050565b60006020820190508181036000830152611fa381611cca565b9050919050565b60006020820190508181036000830152611fc381611ced565b9050919050565b60006020820190508181036000830152611fe381611d10565b9050919050565b6000602082019050611fff6000830184611d33565b92915050565b600061200f612020565b905061201b8282612241565b919050565b6000604051905090565b600067ffffffffffffffff82111561204557612044612379565b5b61204e826123a8565b9050602081019050919050565b600081519050919050565b600081519050919050565b600082825260208201905092915050565b600082825260208201905092915050565b600081905092915050565b60006120a9826121c3565b91506120b4836121c3565b9250827fffffffffffffffffffffffffffffffffffffffffffffffffffffffffffffffff038211156120e9576120e86122ec565b5b828201905092915050565b60006120ff826121c3565b915061210a836121c3565b92508261211a5761211961231b565b5b828204905092915050565b6000612130826121c3565b915061213b836121c3565b92508282101561214e5761214d6122ec565b5b828203905092915050565b6000612164826121a3565b9050919050565b60008115159050919050565b60007fffffffff0000000000000000000000000000000000000000000000000000000082169050919050565b600073ffffffffffffffffffffffffffffffffffffffff82169050919050565b6000819050919050565b82818337600083830152505050565b60005b838110156121fa5780820151818401526020810190506121df565b83811115612209576000848401525b50505050565b6000600282049050600182168061222757607f821691505b6020821081141561223b5761223a61234a565b5b50919050565b61224a826123a8565b810181811067ffffffffffffffff8211171561226957612268612379565b5b80604052505050565b600061227d826121c3565b91507fffffffffffffffffffffffffffffffffffffffffffffffffffffffffffffffff8214156122b0576122af6122ec565b5b600182019050919050565b60006122c6826121c3565b91506122d1836121c3565b9250826122e1576122e061231b565b5b828206905092915050565b7f4e487b7100000000000000000000000000000000000000000000000000000000600052601160045260246000fd5b7f4e487b7100000000000000000000000000000000000000000000000000000000600052601260045260246000fd5b7f4e487b7100000000000000000000000000000000000000000000000000000000600052602260045260246000fd5b7f4e487b7100000000000000000000000000000000000000000000000000000000600052604160045260246000fd5b6000601f19601f8301169050919050565b7f4552433732313a207472616e7366657220746f206e6f6e20455243373231526560008201527f63656976657220696d706c656d656e7465720000000000000000000000000000602082015250565b7f4552433732313a20746f6b656e20616c7265616479206d696e74656400000000600082015250565b7f4552433732313a207472616e7366657220746f20746865207a65726f2061646460008201527f7265737300000000000000000000000000000000000000000000000000000000602082015250565b7f4552433732313a20617070726f766520746f2063616c6c657200000000000000600082015250565b7f6f6e6c792061646d696e00000000000000000000000000000000000000000000600082015250565b7f4552433732313a206f70657261746f7220717565727920666f72206e6f6e657860008201527f697374656e7420746f6b656e0000000000000000000000000000000000000000602082015250565b7f4552433732313a20617070726f76652063616c6c6572206973206e6f74206f7760008201527f6e6572206e6f7220617070726f76656420666f7220616c6c0000000000000000602082015250565b7f4552433732313a2062616c616e636520717565727920666f7220746865207a6560008201527f726f206164647265737300000000000000000000000000000000000000000000602082015250565b7f4552433732313a206f776e657220717565727920666f72206e6f6e657869737460008201527f656e7420746f6b656e0000000000000000000000000000000000000000000000602082015250565b7f4552433732313a206d696e7420746f20746865207a65726f2061646472657373600082015250565b7f4552433732313a20617070726f76656420717565727920666f72206e6f6e657860008201527f697374656e7420746f6b656e0000000000000000000000000000000000000000602082015250565b7f4552433732313a207472616e73666572206f6620746f6b656e2074686174206960008201527f73206e6f74206f776e0000000000000000000000000000000000000000000000602082015250565b7f4552433732314d657461646174613a2055524920717565727920666f72206e6f60008201527f6e6578697374656e7420746f6b656e0000000000000000000000000000000000602082015250565b7f4552433732313a20617070726f76616c20746f2063757272656e74206f776e6560008201527f7200000000000000000000000000000000000000000000000000000000000000602082015250565b7f4552433732313a207472616e736665722063616c6c6572206973206e6f74206f60008201527f776e6572206e6f7220617070726f766564000000000000000000000000000000602082015250565b6127cb81612159565b81146127d657600080fd5b50565b6127e28161216b565b81146127ed57600080fd5b50565b6127f981612177565b811461280457600080fd5b50565b612810816121c3565b811461281b57600080fd5b5056fea26469706673582212202316274141ff11b806b0e65a548d5c2fdb52013e0f2694c0955d96f74682f9d564736f6c63430008040033",
  "immutableReferences": {},
  "source": "// SPDX-License-Identifier: UNLICENSED\npragma solidity ^0.8.4;\n\nimport \"@openzeppelin/contracts/token/ERC721/ERC721.sol\";\n\ncontract ERC721OpenZeppelin1 is ERC721{\n  constructor() ERC721(\"Token Name\", \"TokenSYM\"){}\n}\n\ncontract ERC721OpenZeppelin2 is ERC721{\n  constructor() ERC721(\"Token Name\", \"TokenSYM\"){\n    _safeMint(msg.sender, 0);\n  }\n}\n\ncontract ERC721OpenZeppelin3 is ERC721{\n  address public admin;\n\n  constructor() ERC721(\"Token Name\", \"TokenSYM\"){\n    admin = msg.sender;\n  }\n\n  function mint(address to, uint tokenId) external {\n    require(msg.sender == admin, 'only admin');\n    _safeMint(to, tokenId);\n  }\n}\n\n// contract ERC721OpenZeppelin3 is ERC721{\n//   constructor() ERC721(\"Token Name\", \"TokenSYM\"){}\n\n//   function faucet(address to, uint tokenId) external {\n//     _safeMint(to, tokenId);\n//   }\n// }\n",
  "sourcePath": "/Users/mac/Desktop/caleb/defi-components/erc721-tokens/contracts/ERC721Openzeppelin.sol",
  "compiler": {
    "name": "solc",
    "version": "0.8.4+commit.c7e474f2.Emscripten.clang"
  },
  "schemaVersion": "3.3.4",
  "updatedAt": "2021-07-05T18:23:13.545Z",
  "devdoc": {
    "kind": "dev",
    "methods": {
      "approve(address,uint256)": {
        "details": "See {IERC721-approve}."
      },
      "balanceOf(address)": {
        "details": "See {IERC721-balanceOf}."
      },
      "getApproved(uint256)": {
        "details": "See {IERC721-getApproved}."
      },
      "isApprovedForAll(address,address)": {
        "details": "See {IERC721-isApprovedForAll}."
      },
      "name()": {
        "details": "See {IERC721Metadata-name}."
      },
      "ownerOf(uint256)": {
        "details": "See {IERC721-ownerOf}."
      },
      "safeTransferFrom(address,address,uint256)": {
        "details": "See {IERC721-safeTransferFrom}."
      },
      "safeTransferFrom(address,address,uint256,bytes)": {
        "details": "See {IERC721-safeTransferFrom}."
      },
      "setApprovalForAll(address,bool)": {
        "details": "See {IERC721-setApprovalForAll}."
      },
      "supportsInterface(bytes4)": {
        "details": "See {IERC165-supportsInterface}."
      },
      "symbol()": {
        "details": "See {IERC721Metadata-symbol}."
      },
      "tokenURI(uint256)": {
        "details": "See {IERC721Metadata-tokenURI}."
      },
      "transferFrom(address,address,uint256)": {
        "details": "See {IERC721-transferFrom}."
      }
    },
    "version": 1
  },
  "userdoc": {
    "kind": "user",
    "methods": {},
    "version": 1
  }
}